{
  "contractName": "setBet",
  "abi": [
    {
      "inputs": [],
      "name": "betFinished",
      "outputs": [
        {
          "internalType": "bool",
          "name": "",
          "type": "bool"
        }
      ],
      "stateMutability": "view",
      "type": "function"
    },
    {
      "inputs": [
        {
          "internalType": "address",
          "name": "",
          "type": "address"
        }
      ],
      "name": "ledgerBookBuy",
      "outputs": [
        {
          "internalType": "uint256",
          "name": "sheres",
          "type": "uint256"
        },
        {
          "internalType": "uint256",
          "name": "numberOfEthar",
          "type": "uint256"
        },
        {
          "internalType": "bool",
          "name": "hasOpponent",
          "type": "bool"
        }
      ],
      "stateMutability": "view",
      "type": "function"
    },
    {
      "inputs": [
        {
          "internalType": "address",
          "name": "",
          "type": "address"
        }
      ],
      "name": "ledgerBookSell",
      "outputs": [
        {
          "internalType": "uint256",
          "name": "sheres",
          "type": "uint256"
        },
        {
          "internalType": "uint256",
          "name": "numberOfEthar",
          "type": "uint256"
        },
        {
          "internalType": "bool",
          "name": "hasOpponent",
          "type": "bool"
        }
      ],
      "stateMutability": "view",
      "type": "function"
    },
    {
      "inputs": [
        {
          "internalType": "address",
          "name": "",
          "type": "address"
        }
      ],
      "name": "ledgerBookSelles",
      "outputs": [
        {
          "internalType": "uint256",
          "name": "sheres",
          "type": "uint256"
        },
        {
          "internalType": "uint256",
          "name": "sellingPrice",
          "type": "uint256"
        }
      ],
      "stateMutability": "view",
      "type": "function"
    },
    {
      "inputs": [
        {
          "internalType": "address",
          "name": "",
          "type": "address"
        }
      ],
      "name": "ledgerBookSettlment",
      "outputs": [
        {
          "internalType": "uint256",
          "name": "sheres",
          "type": "uint256"
        },
        {
          "internalType": "uint256",
          "name": "sellingPrice",
          "type": "uint256"
        }
      ],
      "stateMutability": "view",
      "type": "function"
    },
    {
      "inputs": [
        {
          "internalType": "enum setBet.Vote",
          "name": "",
          "type": "uint8"
        }
      ],
      "name": "listOfBets",
      "outputs": [
        {
          "internalType": "uint256",
          "name": "",
          "type": "uint256"
        }
      ],
      "stateMutability": "view",
      "type": "function"
    },
    {
      "inputs": [
        {
          "internalType": "address",
          "name": "",
          "type": "address"
        },
        {
          "internalType": "enum setBet.Vote",
          "name": "",
          "type": "uint8"
        }
      ],
      "name": "listOfParticipans",
      "outputs": [
        {
          "internalType": "uint256",
          "name": "",
          "type": "uint256"
        }
      ],
      "stateMutability": "view",
      "type": "function"
    },
    {
      "inputs": [
        {
          "internalType": "enum setBet.Vote",
          "name": "",
          "type": "uint8"
        }
      ],
      "name": "listOfREPBets",
      "outputs": [
        {
          "internalType": "uint256",
          "name": "",
          "type": "uint256"
        }
      ],
      "stateMutability": "view",
      "type": "function"
    },
    {
      "inputs": [
        {
          "internalType": "address",
          "name": "",
          "type": "address"
        },
        {
          "internalType": "enum setBet.Vote",
          "name": "",
          "type": "uint8"
        }
      ],
      "name": "listOfREPreporters",
      "outputs": [
        {
          "internalType": "uint256",
          "name": "",
          "type": "uint256"
        }
      ],
      "stateMutability": "view",
      "type": "function"
    },
    {
      "inputs": [],
      "name": "myPrediction",
      "outputs": [
        {
          "internalType": "string",
          "name": "",
          "type": "string"
        }
      ],
      "stateMutability": "view",
      "type": "function"
    },
    {
      "inputs": [
        {
          "internalType": "string",
          "name": "Prediction",
          "type": "string"
        }
      ],
      "name": "writePrediction",
      "outputs": [],
      "stateMutability": "nonpayable",
      "type": "function"
    },
    {
      "inputs": [],
      "name": "readPrediction",
      "outputs": [
        {
          "internalType": "string",
          "name": "",
          "type": "string"
        }
      ],
      "stateMutability": "view",
      "type": "function"
    },
    {
      "inputs": [],
      "name": "setCreator",
      "outputs": [],
      "stateMutability": "nonpayable",
      "type": "function"
    },
    {
      "inputs": [],
      "name": "getCreator",
      "outputs": [
        {
          "internalType": "address",
          "name": "",
          "type": "address"
        }
      ],
      "stateMutability": "view",
      "type": "function"
    },
    {
      "inputs": [],
      "name": "setCategory",
      "outputs": [
        {
          "internalType": "string",
          "name": "Category",
          "type": "string"
        }
      ],
      "stateMutability": "nonpayable",
      "type": "function"
    },
    {
      "inputs": [],
      "name": "setTags",
      "outputs": [
        {
          "internalType": "string",
          "name": "Tags",
          "type": "string"
        }
      ],
      "stateMutability": "nonpayable",
      "type": "function"
    },
    {
      "inputs": [
        {
          "internalType": "string",
          "name": "AdditionalDetails",
          "type": "string"
        }
      ],
      "name": "setAdditionalDetails",
      "outputs": [],
      "stateMutability": "nonpayable",
      "type": "function"
    },
    {
      "inputs": [
        {
          "internalType": "uint256",
          "name": "EndTime",
          "type": "uint256"
        }
      ],
      "name": "setEndTime",
      "outputs": [],
      "stateMutability": "nonpayable",
      "type": "function"
    },
    {
      "inputs": [
        {
          "internalType": "uint256",
          "name": "CreatorFee",
          "type": "uint256"
        }
      ],
      "name": "setCreatorFee",
      "outputs": [],
      "stateMutability": "nonpayable",
      "type": "function"
    },
    {
      "inputs": [
        {
          "internalType": "uint256",
          "name": "intLiq",
          "type": "uint256"
        }
      ],
      "name": "setInitialLiquidity",
      "outputs": [],
      "stateMutability": "nonpayable",
      "type": "function"
    },
    {
      "inputs": [
        {
          "internalType": "uint256",
          "name": "Shares",
          "type": "uint256"
        }
      ],
      "name": "setParticipantBetBuy",
      "outputs": [],
      "stateMutability": "payable",
      "type": "function"
    },
    {
      "inputs": [],
      "name": "getParticipantBetBuy",
      "outputs": [
        {
          "internalType": "uint256",
          "name": "value",
          "type": "uint256"
        }
      ],
      "stateMutability": "view",
      "type": "function"
    },
    {
      "inputs": [
        {
          "internalType": "uint256",
          "name": "Shares",
          "type": "uint256"
        }
      ],
      "name": "setParticipantBetSell",
      "outputs": [],
      "stateMutability": "payable",
      "type": "function"
    },
    {
      "inputs": [],
      "name": "getParticipantBetSell",
      "outputs": [
        {
          "internalType": "uint256",
          "name": "value",
          "type": "uint256"
        }
      ],
      "stateMutability": "view",
      "type": "function"
    },
    {
      "inputs": [
        {
          "internalType": "address",
          "name": "_opponent",
          "type": "address"
        },
        {
          "internalType": "uint256",
          "name": "shere",
          "type": "uint256"
        }
      ],
      "name": "setParticipantBetOpponentBuy",
      "outputs": [],
      "stateMutability": "payable",
      "type": "function"
    },
    {
      "inputs": [
        {
          "internalType": "address",
          "name": "_opponent",
          "type": "address"
        },
        {
          "internalType": "uint256",
          "name": "shere",
          "type": "uint256"
        }
      ],
      "name": "setParticipantBetOpponentSell",
      "outputs": [],
      "stateMutability": "payable",
      "type": "function"
    },
    {
      "inputs": [
        {
          "internalType": "uint256",
          "name": "sheres",
          "type": "uint256"
        },
        {
          "internalType": "uint256",
          "name": "sellingPrice",
          "type": "uint256"
        }
      ],
      "name": "setToSellBuy",
      "outputs": [],
      "stateMutability": "nonpayable",
      "type": "function"
    },
    {
      "inputs": [],
      "name": "getsetToSellBuy",
      "outputs": [
        {
          "internalType": "uint256",
          "name": "",
          "type": "uint256"
        }
      ],
      "stateMutability": "view",
      "type": "function"
    },
    {
      "inputs": [
        {
          "internalType": "uint256",
          "name": "sheres",
          "type": "uint256"
        },
        {
          "internalType": "uint256",
          "name": "sellingPrice",
          "type": "uint256"
        }
      ],
      "name": "setToSellSell",
      "outputs": [],
      "stateMutability": "nonpayable",
      "type": "function"
    },
    {
      "inputs": [
        {
          "internalType": "address payable",
          "name": "_seller",
          "type": "address"
        }
      ],
      "name": "buySomeonesBuyBet",
      "outputs": [],
      "stateMutability": "payable",
      "type": "function"
    },
    {
      "inputs": [
        {
          "internalType": "address",
          "name": "_seller",
          "type": "address"
        }
      ],
      "name": "getSellersMoney",
      "outputs": [
        {
          "internalType": "uint256",
          "name": "",
          "type": "uint256"
        }
      ],
      "stateMutability": "view",
      "type": "function"
    },
    {
      "inputs": [
        {
          "internalType": "address payable",
          "name": "_seller",
          "type": "address"
        }
      ],
      "name": "buySomeonesBuySell",
      "outputs": [],
      "stateMutability": "payable",
      "type": "function"
    },
    {
      "inputs": [
        {
          "internalType": "uint256",
          "name": "sheres",
          "type": "uint256"
        },
        {
          "internalType": "uint256",
          "name": "sellingPrice",
          "type": "uint256"
        }
      ],
      "name": "settleCompleteSetBuy",
      "outputs": [],
      "stateMutability": "nonpayable",
      "type": "function"
    },
    {
      "inputs": [],
      "name": "getsettleCompleteSetBuy",
      "outputs": [
        {
          "internalType": "uint256",
          "name": "",
          "type": "uint256"
        }
      ],
      "stateMutability": "view",
      "type": "function"
    },
    {
      "inputs": [
        {
          "internalType": "uint256",
          "name": "sheres",
          "type": "uint256"
        },
        {
          "internalType": "uint256",
          "name": "sellingPrice",
          "type": "uint256"
        }
      ],
      "name": "settleCompleteSetSell",
      "outputs": [],
      "stateMutability": "nonpayable",
      "type": "function"
    },
    {
      "inputs": [
        {
          "internalType": "address payable",
          "name": "_seller",
          "type": "address"
        },
        {
          "internalType": "address payable",
          "name": "_buyer",
          "type": "address"
        }
      ],
      "name": "buySomeonesSettleCompleteSetBuy",
      "outputs": [],
      "stateMutability": "payable",
      "type": "function"
    },
    {
      "inputs": [
        {
          "internalType": "address payable",
          "name": "_seller",
          "type": "address"
        }
      ],
      "name": "buySomeonesSettleCompleteSetSell",
      "outputs": [],
      "stateMutability": "payable",
      "type": "function"
    },
    {
      "inputs": [],
      "name": "setValidityBond",
      "outputs": [],
      "stateMutability": "payable",
      "type": "function"
    },
    {
      "inputs": [],
      "name": "getValidityBond",
      "outputs": [
        {
          "internalType": "uint256",
          "name": "",
          "type": "uint256"
        }
      ],
      "stateMutability": "payable",
      "type": "function"
    },
    {
      "inputs": [],
      "name": "setNoShowBond",
      "outputs": [],
      "stateMutability": "payable",
      "type": "function"
    },
    {
      "inputs": [
        {
          "internalType": "enum setBet.Vote",
          "name": "_vote",
          "type": "uint8"
        }
      ],
      "name": "setPredictionOutcame",
      "outputs": [],
      "stateMutability": "payable",
      "type": "function"
    },
    {
      "inputs": [
        {
          "internalType": "enum setBet.Vote",
          "name": "_vote",
          "type": "uint8"
        }
      ],
      "name": "setTentativeWinningOutcome",
      "outputs": [],
      "stateMutability": "nonpayable",
      "type": "function"
    },
    {
      "inputs": [
        {
          "internalType": "enum setBet.Vote",
          "name": "_vote",
          "type": "uint8"
        }
      ],
      "name": "setOpenReporting",
      "outputs": [],
      "stateMutability": "nonpayable",
      "type": "function"
    },
    {
      "inputs": [],
      "name": "getTentativeWinningOutcome",
      "outputs": [
        {
          "internalType": "enum setBet.Vote",
          "name": "",
          "type": "uint8"
        }
      ],
      "stateMutability": "view",
      "type": "function"
    },
    {
      "inputs": [],
      "name": "buyParticipantBet",
      "outputs": [],
      "stateMutability": "payable",
      "type": "function"
    },
    {
      "inputs": [],
      "name": "getMoney",
      "outputs": [],
      "stateMutability": "nonpayable",
      "type": "function"
    }
  ],
  "bytecode": "0x60806040526000600a60016101000a81548160ff02191690831515021790555034801561002b57600080fd5b506140638061003b6000396000f3fe60806040526004361061027d5760003560e01c80636cdde1fd1161014f578063ad4fe248116100c1578063d44f95b31161007a578063d44f95b314610ef1578063d95b8f5714610efb578063e11f0edd14610f26578063e671ea6b14610f54578063fa1aa01814610fe4578063fdfdf2a91461101a5761027d565b8063ad4fe24814610cc8578063b6aab0bc14610cd2578063c2ebdb7e14610d62578063cbd7871c14610df2578063ccb98ffc14610e64578063d1d8fd1114610e9f5761027d565b80638782ddee116101135780638782ddee14610b085780638bb321fd14610b3557806392fde74014610b7957806398e1b41014610bee578063a38d337b14610c05578063aa176cfa14610c7a5761027d565b80636cdde1fd1461097e5780637072dde3146109c357806371a3336414610a535780637d06108614610a7e5780638385a9fa14610aea5761027d565b806332e75a58116101f3578063589add70116101ac578063589add701461082d57806359f121a81461087b5780635ca20800146108925780636339dc301461089c5780636676fd9a146108ee5780636721fbfa146109195761027d565b806332e75a5814610615578063372c7817146106dd578063375c6f16146107215780633b0540c81461076657806340fe833e146107ab57806348428c95146107ef5761027d565b80630f200786116102455780630f200786146103c95780630f20f5fb1461040e57806321d41f641461044c5780632786ff341461047d57806331c33d2214610545578063324fbccb146105b15761027d565b806304b3f72d146102825780630642eb3f146102b057806306cbc0b7146103225780630dd16fd51461034d5780630ee2cb1014610388575b600080fd5b6102ae6004803603602081101561029857600080fd5b8101908080359060200190929190505050611055565b005b3480156102bc57600080fd5b5061030c600480360360408110156102d357600080fd5b81019080803573ffffffffffffffffffffffffffffffffffffffff169060200190929190803560ff1690602001909291905050506111ca565b6040518082815260200191505060405180910390f35b34801561032e57600080fd5b506103376111ef565b6040518082815260200191505060405180910390f35b34801561035957600080fd5b506103866004803603602081101561037057600080fd5b8101908080359060200190929190505050611239565b005b34801561039457600080fd5b5061039d611243565b604051808273ffffffffffffffffffffffffffffffffffffffff16815260200191505060405180910390f35b3480156103d557600080fd5b5061040c600480360360408110156103ec57600080fd5b81019080803590602001909291908035906020019092919050505061126c565b005b34801561041a57600080fd5b5061044a6004803603602081101561043157600080fd5b81019080803560ff169060200190929190505050611508565b005b61047b6004803603602081101561046257600080fd5b81019080803560ff169060200190929190505050611695565b005b34801561048957600080fd5b50610543600480360360208110156104a057600080fd5b81019080803590602001906401000000008111156104bd57600080fd5b8201836020820111156104cf57600080fd5b803590602001918460018302840111640100000000831117156104f157600080fd5b91908080601f016020809104026020016040519081016040528093929190818152602001838380828437600081840152601f19601f8201169050808301925050505050505091929192905050506117cc565b005b34801561055157600080fd5b506105946004803603602081101561056857600080fd5b81019080803573ffffffffffffffffffffffffffffffffffffffff1690602001909291905050506117e6565b604051808381526020018281526020019250505060405180910390f35b610613600480360360408110156105c757600080fd5b81019080803573ffffffffffffffffffffffffffffffffffffffff169060200190929190803573ffffffffffffffffffffffffffffffffffffffff16906020019092919050505061180a565b005b34801561062157600080fd5b506106db6004803603602081101561063857600080fd5b810190808035906020019064010000000081111561065557600080fd5b82018360208201111561066757600080fd5b8035906020019184600183028401116401000000008311171561068957600080fd5b91908080601f016020809104026020016040519081016040528093929190818152602001838380828437600081840152601f19601f820116905080830192505050505050509192919290505050611d57565b005b61071f600480360360208110156106f357600080fd5b81019080803573ffffffffffffffffffffffffffffffffffffffff169060200190929190505050611d71565b005b34801561072d57600080fd5b506107646004803603604081101561074457600080fd5b8101908080359060200190929190803590602001909291905050506120a3565b005b34801561077257600080fd5b506107a96004803603604081101561078957600080fd5b81019080803590602001909291908035906020019092919050505061233f565b005b6107ed600480360360208110156107c157600080fd5b81019080803573ffffffffffffffffffffffffffffffffffffffff1690602001909291905050506125db565b005b3480156107fb57600080fd5b5061082b6004803603602081101561081257600080fd5b81019080803560ff169060200190929190505050612a87565b005b6108796004803603604081101561084357600080fd5b81019080803573ffffffffffffffffffffffffffffffffffffffff16906020019092919080359060200190929190505050612c06565b005b34801561088757600080fd5b50610890612de4565b005b61089a612e67565b005b3480156108a857600080fd5b506108d8600480360360208110156108bf57600080fd5b81019080803560ff169060200190929190505050612ef2565b6040518082815260200191505060405180910390f35b3480156108fa57600080fd5b50610903612f0a565b6040518082815260200191505060405180910390f35b34801561092557600080fd5b506109686004803603602081101561093c57600080fd5b81019080803573ffffffffffffffffffffffffffffffffffffffff169060200190929190505050612f54565b6040518082815260200191505060405180910390f35b34801561098a57600080fd5b506109c1600480360360408110156109a157600080fd5b810190808035906020019092919080359060200190929190505050612f9d565b005b3480156109cf57600080fd5b506109d8613239565b6040518080602001828103825283818151815260200191508051906020019080838360005b83811015610a185780820151818401526020810190506109fd565b50505050905090810190601f168015610a455780820380516001836020036101000a031916815260200191505b509250505060405180910390f35b348015610a5f57600080fd5b50610a686132d7565b6040518082815260200191505060405180910390f35b348015610a8a57600080fd5b50610acd60048036036020811015610aa157600080fd5b81019080803573ffffffffffffffffffffffffffffffffffffffff169060200190929190505050613321565b604051808381526020018281526020019250505060405180910390f35b610af2613345565b6040518082815260200191505060405180910390f35b348015610b1457600080fd5b50610b1d6134cc565b60405180821515815260200191505060405180910390f35b610b7760048036036020811015610b4b57600080fd5b81019080803573ffffffffffffffffffffffffffffffffffffffff1690602001909291905050506134df565b005b348015610b8557600080fd5b50610bc860048036036020811015610b9c57600080fd5b81019080803573ffffffffffffffffffffffffffffffffffffffff1690602001909291905050506137cd565b604051808481526020018381526020018215158152602001935050505060405180910390f35b348015610bfa57600080fd5b50610c03613804565b005b348015610c1157600080fd5b50610c5460048036036020811015610c2857600080fd5b81019080803573ffffffffffffffffffffffffffffffffffffffff16906020019092919050505061390a565b604051808481526020018381526020018215158152602001935050505060405180910390f35b610cc660048036036040811015610c9057600080fd5b81019080803573ffffffffffffffffffffffffffffffffffffffff16906020019092919080359060200190929190505050613941565b005b610cd0613b1f565b005b348015610cde57600080fd5b50610ce7613b80565b6040518080602001828103825283818151815260200191508051906020019080838360005b83811015610d27578082015181840152602081019050610d0c565b50505050905090810190601f168015610d545780820380516001836020036101000a031916815260200191505b509250505060405180910390f35b348015610d6e57600080fd5b50610d77613b9c565b6040518080602001828103825283818151815260200191508051906020019080838360005b83811015610db7578082015181840152602081019050610d9c565b50505050905090810190601f168015610de45780820380516001836020036101000a031916815260200191505b509250505060405180910390f35b348015610dfe57600080fd5b50610e4e60048036036040811015610e1557600080fd5b81019080803573ffffffffffffffffffffffffffffffffffffffff169060200190929190803560ff169060200190929190505050613bb8565b6040518082815260200191505060405180910390f35b348015610e7057600080fd5b50610e9d60048036036020811015610e8757600080fd5b8101908080359060200190929190505050613bdd565b005b348015610eab57600080fd5b50610edb60048036036020811015610ec257600080fd5b81019080803560ff169060200190929190505050613be7565b6040518082815260200191505060405180910390f35b610ef9613bff565b005b348015610f0757600080fd5b50610f10613c60565b6040518082815260200191505060405180910390f35b610f5260048036036020811015610f3c57600080fd5b8101908080359060200190929190505050613caa565b005b348015610f6057600080fd5b50610f69613e1f565b6040518080602001828103825283818151815260200191508051906020019080838360005b83811015610fa9578082015181840152602081019050610f8e565b50505050905090810190601f168015610fd65780820380516001836020036101000a031916815260200191505b509250505060405180910390f35b348015610ff057600080fd5b50610ff9613ec1565b6040518082600181111561100957fe5b815260200191505060405180910390f35b34801561102657600080fd5b506110536004803603602081101561103d57600080fd5b8101908080359060200190929190505050613f61565b005b60001515600a60009054906101000a900460ff161515146110de576040517f08c379a000000000000000000000000000000000000000000000000000000000815260040180806020018281038252600e8152602001807f566f74696e67206973206f76657200000000000000000000000000000000000081525060200191505060405180910390fd5b80601560003373ffffffffffffffffffffffffffffffffffffffff1673ffffffffffffffffffffffffffffffffffffffff1681526020019081526020016000206000018190555034601560003373ffffffffffffffffffffffffffffffffffffffff1673ffffffffffffffffffffffffffffffffffffffff168152602001908152602001600020600101819055506000601560003373ffffffffffffffffffffffffffffffffffffffff1673ffffffffffffffffffffffffffffffffffffffff16815260200190815260200160002060020160006101000a81548160ff02191690831515021790555050565b600f602052816000526040600020602052806000526040600020600091509150505481565b6000601460003373ffffffffffffffffffffffffffffffffffffffff1673ffffffffffffffffffffffffffffffffffffffff16815260200190815260200160002060010154905090565b8060088190555050565b60008060009054906101000a900473ffffffffffffffffffffffffffffffffffffffff16905090565b60001515600a60009054906101000a900460ff161515146112f5576040517f08c379a000000000000000000000000000000000000000000000000000000000815260040180806020018281038252600e8152602001807f566f74696e67206973206f76657200000000000000000000000000000000000081525060200191505060405180910390fd5b81601560003373ffffffffffffffffffffffffffffffffffffffff1673ffffffffffffffffffffffffffffffffffffffff1681526020019081526020016000206000015410156113ad576040517f08c379a000000000000000000000000000000000000000000000000000000000815260040180806020018281038252601d8152602001807f596f7520646f6e74206f776e2074686174206d7563682073686572657300000081525060200191505060405180910390fd5b60011515601560003373ffffffffffffffffffffffffffffffffffffffff1673ffffffffffffffffffffffffffffffffffffffff16815260200190815260200160002060020160009054906101000a900460ff16151514611476576040517f08c379a00000000000000000000000000000000000000000000000000000000081526004018080602001828103825260128152602001807f20596f752068617665206f70706f6e656e74000000000000000000000000000081525060200191505060405180910390fd5b81601760003373ffffffffffffffffffffffffffffffffffffffff1673ffffffffffffffffffffffffffffffffffffffff1681526020019081526020016000206000018190555080601760003373ffffffffffffffffffffffffffffffffffffffff1673ffffffffffffffffffffffffffffffffffffffff168152602001908152602001600020600101819055505050565b60011515600a60009054906101000a900460ff16151514611591576040517f08c379a000000000000000000000000000000000000000000000000000000000815260040180806020018281038252600e8152602001807f566f74696e67206973206f76657200000000000000000000000000000000000081525060200191505060405180910390fd5b600660009054906101000a900473ffffffffffffffffffffffffffffffffffffffff1673ffffffffffffffffffffffffffffffffffffffff163373ffffffffffffffffffffffffffffffffffffffff1614611654576040517f08c379a00000000000000000000000000000000000000000000000000000000081526004018080602001828103825260198152602001807f52696768742064657369676e65746564207265706f727465720000000000000081525060200191505060405180910390fd5b80600a60026101000a81548160ff0219169083600181111561167257fe5b02179055506001600a60016101000a81548160ff02191690831515021790555050565b60001515600a60009054906101000a900460ff1615151461171e576040517f08c379a000000000000000000000000000000000000000000000000000000000815260040180806020018281038252600e8152602001807f566f74696e67206973206f76657200000000000000000000000000000000000081525060200191505060405180910390fd5b346010600083600181111561172f57fe5b600181111561173a57fe5b81526020019081526020016000206000828254019250508190555034601160003373ffffffffffffffffffffffffffffffffffffffff1673ffffffffffffffffffffffffffffffffffffffff16815260200190815260200160002060008360018111156117a357fe5b60018111156117ae57fe5b81526020019081526020016000206000828254019250508190555050565b80600790805190602001906117e2929190613f6b565b5050565b60166020528060005260406000206000915090508060000154908060010154905082565b60001515600a60009054906101000a900460ff16151514611893576040517f08c379a000000000000000000000000000000000000000000000000000000000815260040180806020018281038252600e8152602001807f566f74696e67206973206f76657200000000000000000000000000000000000081525060200191505060405180910390fd5b600067016345785d8a0000601760008573ffffffffffffffffffffffffffffffffffffffff1673ffffffffffffffffffffffffffffffffffffffff1681526020019081526020016000206001015402601760008573ffffffffffffffffffffffffffffffffffffffff1673ffffffffffffffffffffffffffffffffffffffff1681526020019081526020016000206000015402905080601860008573ffffffffffffffffffffffffffffffffffffffff1673ffffffffffffffffffffffffffffffffffffffff1681526020019081526020016000208190555060006008546064838161197b57fe5b04029050600081830390508473ffffffffffffffffffffffffffffffffffffffff166108fc829081150290604051600060405180830381858888f193505050501580156119cc573d6000803e3d6000fd5b508260125403601281905550600067016345785d8a0000601760008873ffffffffffffffffffffffffffffffffffffffff1673ffffffffffffffffffffffffffffffffffffffff16815260200190815260200160002060010154600a0302601760008873ffffffffffffffffffffffffffffffffffffffff1673ffffffffffffffffffffffffffffffffffffffff16815260200190815260200160002060000154029050600060085460648381611a7f57fe5b0402905081925082601860008873ffffffffffffffffffffffffffffffffffffffff1673ffffffffffffffffffffffffffffffffffffffff16815260200190815260200160002081905550600082601354039050826013540360138190555081830393503373ffffffffffffffffffffffffffffffffffffffff166108fc849081150290604051600060405180830381858888f19350505050158015611b29573d6000803e3d6000fd5b506000828601905060008054906101000a900473ffffffffffffffffffffffffffffffffffffffff1673ffffffffffffffffffffffffffffffffffffffff166108fc829081150290604051600060405180830381858888f19350505050158015611b97573d6000803e3d6000fd5b50601760008a73ffffffffffffffffffffffffffffffffffffffff1673ffffffffffffffffffffffffffffffffffffffff16815260200190815260200160002060000154601460008b73ffffffffffffffffffffffffffffffffffffffff1673ffffffffffffffffffffffffffffffffffffffff16815260200190815260200160002060000160008282540392505081905550601460008a73ffffffffffffffffffffffffffffffffffffffff1673ffffffffffffffffffffffffffffffffffffffff16815260200190815260200160002060000154601560003373ffffffffffffffffffffffffffffffffffffffff1673ffffffffffffffffffffffffffffffffffffffff168152602001908152602001600020600001600082825403925050819055506000601760008b73ffffffffffffffffffffffffffffffffffffffff1673ffffffffffffffffffffffffffffffffffffffff168152602001908152602001600020600001819055506000601760008b73ffffffffffffffffffffffffffffffffffffffff1673ffffffffffffffffffffffffffffffffffffffff16815260200190815260200160002060010181905550505050505050505050565b8060039080519060200190611d6d929190613f6b565b5050565b60001515600a60009054906101000a900460ff16151514611dfa576040517f08c379a000000000000000000000000000000000000000000000000000000000815260040180806020018281038252600e8152602001807f566f74696e67206973206f76657200000000000000000000000000000000000081525060200191505060405180910390fd5b601460008273ffffffffffffffffffffffffffffffffffffffff1673ffffffffffffffffffffffffffffffffffffffff16815260200190815260200160002060000154601460003373ffffffffffffffffffffffffffffffffffffffff1673ffffffffffffffffffffffffffffffffffffffff1681526020019081526020016000206000016000828254019250508190555034601460003373ffffffffffffffffffffffffffffffffffffffff1673ffffffffffffffffffffffffffffffffffffffff16815260200190815260200160002060010160008282540192505081905550601460008273ffffffffffffffffffffffffffffffffffffffff1673ffffffffffffffffffffffffffffffffffffffff16815260200190815260200160002060020160009054906101000a900460ff16601460003373ffffffffffffffffffffffffffffffffffffffff1673ffffffffffffffffffffffffffffffffffffffff16815260200190815260200160002060020160006101000a81548160ff0219169083151502179055508073ffffffffffffffffffffffffffffffffffffffff166108fc349081150290604051600060405180830381858888f19350505050158015611fcb573d6000803e3d6000fd5b5034601860008373ffffffffffffffffffffffffffffffffffffffff1673ffffffffffffffffffffffffffffffffffffffff168152602001908152602001600020819055506000601660008373ffffffffffffffffffffffffffffffffffffffff1673ffffffffffffffffffffffffffffffffffffffff168152602001908152602001600020600001819055506000601660008373ffffffffffffffffffffffffffffffffffffffff1673ffffffffffffffffffffffffffffffffffffffff1681526020019081526020016000206001018190555050565b60001515600a60009054906101000a900460ff1615151461212c576040517f08c379a000000000000000000000000000000000000000000000000000000000815260040180806020018281038252600e8152602001807f566f74696e67206973206f76657200000000000000000000000000000000000081525060200191505060405180910390fd5b81601460003373ffffffffffffffffffffffffffffffffffffffff1673ffffffffffffffffffffffffffffffffffffffff1681526020019081526020016000206000015410156121e4576040517f08c379a000000000000000000000000000000000000000000000000000000000815260040180806020018281038252601d8152602001807f596f7520646f6e74206f776e2074686174206d7563682073686572657300000081525060200191505060405180910390fd5b60011515601460003373ffffffffffffffffffffffffffffffffffffffff1673ffffffffffffffffffffffffffffffffffffffff16815260200190815260200160002060020160009054906101000a900460ff161515146122ad576040517f08c379a00000000000000000000000000000000000000000000000000000000081526004018080602001828103825260128152602001807f20596f752068617665206f70706f6e656e74000000000000000000000000000081525060200191505060405180910390fd5b81601760003373ffffffffffffffffffffffffffffffffffffffff1673ffffffffffffffffffffffffffffffffffffffff1681526020019081526020016000206000018190555080601760003373ffffffffffffffffffffffffffffffffffffffff1673ffffffffffffffffffffffffffffffffffffffff168152602001908152602001600020600101819055505050565b60001515600a60009054906101000a900460ff161515146123c8576040517f08c379a000000000000000000000000000000000000000000000000000000000815260040180806020018281038252600e8152602001807f566f74696e67206973206f76657200000000000000000000000000000000000081525060200191505060405180910390fd5b81601460003373ffffffffffffffffffffffffffffffffffffffff1673ffffffffffffffffffffffffffffffffffffffff168152602001908152602001600020600001541015612480576040517f08c379a000000000000000000000000000000000000000000000000000000000815260040180806020018281038252601d8152602001807f596f7520646f6e74206f776e2074686174206d7563682073686572657300000081525060200191505060405180910390fd5b60011515601460003373ffffffffffffffffffffffffffffffffffffffff1673ffffffffffffffffffffffffffffffffffffffff16815260200190815260200160002060020160009054906101000a900460ff16151514612549576040517f08c379a00000000000000000000000000000000000000000000000000000000081526004018080602001828103825260128152602001807f20596f752068617665206f70706f6e656e74000000000000000000000000000081525060200191505060405180910390fd5b81601660003373ffffffffffffffffffffffffffffffffffffffff1673ffffffffffffffffffffffffffffffffffffffff1681526020019081526020016000206000018190555080601660003373ffffffffffffffffffffffffffffffffffffffff1673ffffffffffffffffffffffffffffffffffffffff168152602001908152602001600020600101819055505050565b60001515600a60009054906101000a900460ff16151514612664576040517f08c379a000000000000000000000000000000000000000000000000000000000815260040180806020018281038252600e8152602001807f566f74696e67206973206f76657200000000000000000000000000000000000081525060200191505060405180910390fd5b601760008273ffffffffffffffffffffffffffffffffffffffff1673ffffffffffffffffffffffffffffffffffffffff16815260200190815260200160002060000154601460003373ffffffffffffffffffffffffffffffffffffffff1673ffffffffffffffffffffffffffffffffffffffff16815260200190815260200160002060000160008282540392505081905550601460008273ffffffffffffffffffffffffffffffffffffffff1673ffffffffffffffffffffffffffffffffffffffff16815260200190815260200160002060000154601560008373ffffffffffffffffffffffffffffffffffffffff1673ffffffffffffffffffffffffffffffffffffffff1681526020019081526020016000206000016000828254039250508190555060006011600a601760008573ffffffffffffffffffffffffffffffffffffffff1673ffffffffffffffffffffffffffffffffffffffff168152602001908152602001600020600101540218601760008473ffffffffffffffffffffffffffffffffffffffff1673ffffffffffffffffffffffffffffffffffffffff1681526020019081526020016000206000015402905060006008546064838161282857fe5b04029050600081830390508373ffffffffffffffffffffffffffffffffffffffff166108fc829081150290604051600060405180830381858888f19350505050158015612879573d6000803e3d6000fd5b5082601354036013819055506011600a601760008773ffffffffffffffffffffffffffffffffffffffff1673ffffffffffffffffffffffffffffffffffffffff16815260200190815260200160002060010154600a030218601760008673ffffffffffffffffffffffffffffffffffffffff1673ffffffffffffffffffffffffffffffffffffffff1681526020019081526020016000206000015402925060006008546064858161292657fe5b04029050808403915083601254036012819055503373ffffffffffffffffffffffffffffffffffffffff166108fc839081150290604051600060405180830381858888f19350505050158015612980573d6000803e3d6000fd5b506000818401905060008054906101000a900473ffffffffffffffffffffffffffffffffffffffff1673ffffffffffffffffffffffffffffffffffffffff166108fc829081150290604051600060405180830381858888f193505050501580156129ee573d6000803e3d6000fd5b506000601760008873ffffffffffffffffffffffffffffffffffffffff1673ffffffffffffffffffffffffffffffffffffffff168152602001908152602001600020600001819055506000601760008873ffffffffffffffffffffffffffffffffffffffff1673ffffffffffffffffffffffffffffffffffffffff16815260200190815260200160002060010181905550505050505050565b60011515600a60009054906101000a900460ff16151514612b10576040517f08c379a000000000000000000000000000000000000000000000000000000000815260040180806020018281038252600e8152602001807f566f74696e67206973206f76657200000000000000000000000000000000000081525060200191505060405180910390fd5b60001515600a60019054906101000a900460ff16151514612b7c576040517f08c379a00000000000000000000000000000000000000000000000000000000081526004018080602001828103825260258152602001806140096025913960400191505060405180910390fd5b80600a60026101000a81548160ff02191690836001811115612b9a57fe5b02179055503373ffffffffffffffffffffffffffffffffffffffff166108fc600c549081150290604051600060405180830381858888f19350505050158015612be7573d6000803e3d6000fd5b506001600a60016101000a81548160ff02191690831515021790555050565b60001515600a60009054906101000a900460ff16151514612c8f576040517f08c379a000000000000000000000000000000000000000000000000000000000815260040180806020018281038252600e8152602001807f566f74696e67206973206f76657200000000000000000000000000000000000081525060200191505060405180910390fd5b6001601460008473ffffffffffffffffffffffffffffffffffffffff1673ffffffffffffffffffffffffffffffffffffffff16815260200190815260200160002060020160006101000a81548160ff021916908315150217905550604051806060016040528082815260200134815260200160011515815250601560003373ffffffffffffffffffffffffffffffffffffffff1673ffffffffffffffffffffffffffffffffffffffff168152602001908152602001600020600082015181600001556020820151816001015560408201518160020160006101000a81548160ff021916908315150217905550905050601460008373ffffffffffffffffffffffffffffffffffffffff1673ffffffffffffffffffffffffffffffffffffffff16815260200190815260200160002060010154601260008282540192505081905550346013600082825401925050819055505050565b336000806101000a81548173ffffffffffffffffffffffffffffffffffffffff021916908373ffffffffffffffffffffffffffffffffffffffff16021790555033600660006101000a81548173ffffffffffffffffffffffffffffffffffffffff021916908373ffffffffffffffffffffffffffffffffffffffff160217905550565b60001515600a60009054906101000a900460ff16151514612ef0576040517f08c379a000000000000000000000000000000000000000000000000000000000815260040180806020018281038252600e8152602001807f566f74696e67206973206f76657200000000000000000000000000000000000081525060200191505060405180910390fd5b565b600e6020528060005260406000206000915090505481565b6000601760003373ffffffffffffffffffffffffffffffffffffffff1673ffffffffffffffffffffffffffffffffffffffff16815260200190815260200160002060000154905090565b6000601860008373ffffffffffffffffffffffffffffffffffffffff1673ffffffffffffffffffffffffffffffffffffffff168152602001908152602001600020549050919050565b60001515600a60009054906101000a900460ff16151514613026576040517f08c379a000000000000000000000000000000000000000000000000000000000815260040180806020018281038252600e8152602001807f566f74696e67206973206f76657200000000000000000000000000000000000081525060200191505060405180910390fd5b81601560003373ffffffffffffffffffffffffffffffffffffffff1673ffffffffffffffffffffffffffffffffffffffff1681526020019081526020016000206000015410156130de576040517f08c379a000000000000000000000000000000000000000000000000000000000815260040180806020018281038252601d8152602001807f596f7520646f6e74206f776e2074686174206d7563682073686572657300000081525060200191505060405180910390fd5b60011515601560003373ffffffffffffffffffffffffffffffffffffffff1673ffffffffffffffffffffffffffffffffffffffff16815260200190815260200160002060020160009054906101000a900460ff161515146131a7576040517f08c379a00000000000000000000000000000000000000000000000000000000081526004018080602001828103825260128152602001807f20596f752068617665206f70706f6e656e74000000000000000000000000000081525060200191505060405180910390fd5b81601660003373ffffffffffffffffffffffffffffffffffffffff1673ffffffffffffffffffffffffffffffffffffffff1681526020019081526020016000206000018190555080601660003373ffffffffffffffffffffffffffffffffffffffff1673ffffffffffffffffffffffffffffffffffffffff168152602001908152602001600020600101819055505050565b60038054600181600116156101000203166002900480601f0160208091040260200160405190810160405280929190818152602001828054600181600116156101000203166002900480156132cf5780601f106132a4576101008083540402835291602001916132cf565b820191906000526020600020905b8154815290600101906020018083116132b257829003601f168201915b505050505081565b6000601560003373ffffffffffffffffffffffffffffffffffffffff1673ffffffffffffffffffffffffffffffffffffffff16815260200190815260200160002060010154905090565b60176020528060005260406000206000915090508060000154908060010154905082565b600060011515600a60009054906101000a900460ff161515146133d0576040517f08c379a000000000000000000000000000000000000000000000000000000000815260040180806020018281038252600e8152602001807f566f74696e67206973206f76657200000000000000000000000000000000000081525060200191505060405180910390fd5b3373ffffffffffffffffffffffffffffffffffffffff1660008054906101000a900473ffffffffffffffffffffffffffffffffffffffff1673ffffffffffffffffffffffffffffffffffffffff161461342857600080fd5b3373ffffffffffffffffffffffffffffffffffffffff1660008054906101000a900473ffffffffffffffffffffffffffffffffffffffff1673ffffffffffffffffffffffffffffffffffffffff161461348057600080fd5b3373ffffffffffffffffffffffffffffffffffffffff166108fc600d549081150290604051600060405180830381858888f193505050501580156134c8573d6000803e3d6000fd5b5090565b600a60009054906101000a900460ff1681565b60001515600a60009054906101000a900460ff16151514613568576040517f08c379a000000000000000000000000000000000000000000000000000000000815260040180806020018281038252600e8152602001807f566f74696e67206973206f76657200000000000000000000000000000000000081525060200191505060405180910390fd5b601460008273ffffffffffffffffffffffffffffffffffffffff1673ffffffffffffffffffffffffffffffffffffffff16815260200190815260200160002060000154601560003373ffffffffffffffffffffffffffffffffffffffff1673ffffffffffffffffffffffffffffffffffffffff1681526020019081526020016000206000016000828254019250508190555034601560003373ffffffffffffffffffffffffffffffffffffffff1673ffffffffffffffffffffffffffffffffffffffff16815260200190815260200160002060010160008282540192505081905550601460008273ffffffffffffffffffffffffffffffffffffffff1673ffffffffffffffffffffffffffffffffffffffff16815260200190815260200160002060020160009054906101000a900460ff16601560003373ffffffffffffffffffffffffffffffffffffffff1673ffffffffffffffffffffffffffffffffffffffff16815260200190815260200160002060020160006101000a81548160ff0219169083151502179055508073ffffffffffffffffffffffffffffffffffffffff166108fc349081150290604051600060405180830381858888f19350505050158015613739573d6000803e3d6000fd5b506000601660008373ffffffffffffffffffffffffffffffffffffffff1673ffffffffffffffffffffffffffffffffffffffff168152602001908152602001600020600001819055506000601660008373ffffffffffffffffffffffffffffffffffffffff1673ffffffffffffffffffffffffffffffffffffffff1681526020019081526020016000206001018190555050565b60156020528060005260406000206000915090508060000154908060010154908060020160009054906101000a900460ff16905083565b60011515600a60009054906101000a900460ff1615151461388d576040517f08c379a000000000000000000000000000000000000000000000000000000000815260040180806020018281038252600f8152602001807f42657474696e67206973206f766572000000000000000000000000000000000081525060200191505060405180910390fd5b6000600f60003373ffffffffffffffffffffffffffffffffffffffff1673ffffffffffffffffffffffffffffffffffffffff1681526020019081526020016000206000600a60029054906101000a900460ff1660018111156138eb57fe5b60018111156138f657fe5b815260200190815260200160002054905050565b60146020528060005260406000206000915090508060000154908060010154908060020160009054906101000a900460ff16905083565b60001515600a60009054906101000a900460ff161515146139ca576040517f08c379a000000000000000000000000000000000000000000000000000000000815260040180806020018281038252600e8152602001807f566f74696e67206973206f76657200000000000000000000000000000000000081525060200191505060405180910390fd5b6001601560008473ffffffffffffffffffffffffffffffffffffffff1673ffffffffffffffffffffffffffffffffffffffff16815260200190815260200160002060020160006101000a81548160ff021916908315150217905550604051806060016040528082815260200134815260200160011515815250601460003373ffffffffffffffffffffffffffffffffffffffff1673ffffffffffffffffffffffffffffffffffffffff168152602001908152602001600020600082015181600001556020820151816001015560408201518160020160006101000a81548160ff02191690831515021790555090505034601260008282540192505081905550601460008373ffffffffffffffffffffffffffffffffffffffff1673ffffffffffffffffffffffffffffffffffffffff168152602001908152602001600020600101546013600082825401925050819055505050565b3373ffffffffffffffffffffffffffffffffffffffff1660008054906101000a900473ffffffffffffffffffffffffffffffffffffffff1673ffffffffffffffffffffffffffffffffffffffff1614613b7757600080fd5b34600d81905550565b60608060049080519060200190613b98929190613f6b565b5090565b60608060059080519060200190613bb4929190613f6b565b5090565b6011602052816000526040600020602052806000526040600020600091509150505481565b8060028190555050565b60106020528060005260406000206000915090505481565b3373ffffffffffffffffffffffffffffffffffffffff1660008054906101000a900473ffffffffffffffffffffffffffffffffffffffff1673ffffffffffffffffffffffffffffffffffffffff1614613c5757600080fd5b34600c81905550565b6000601660003373ffffffffffffffffffffffffffffffffffffffff1673ffffffffffffffffffffffffffffffffffffffff16815260200190815260200160002060010154905090565b60001515600a60009054906101000a900460ff16151514613d33576040517f08c379a000000000000000000000000000000000000000000000000000000000815260040180806020018281038252600e8152602001807f566f74696e67206973206f76657200000000000000000000000000000000000081525060200191505060405180910390fd5b80601460003373ffffffffffffffffffffffffffffffffffffffff1673ffffffffffffffffffffffffffffffffffffffff1681526020019081526020016000206000018190555034601460003373ffffffffffffffffffffffffffffffffffffffff1673ffffffffffffffffffffffffffffffffffffffff168152602001908152602001600020600101819055506000601460003373ffffffffffffffffffffffffffffffffffffffff1673ffffffffffffffffffffffffffffffffffffffff16815260200190815260200160002060020160006101000a81548160ff02191690831515021790555050565b606060038054600181600116156101000203166002900480601f016020809104026020016040519081016040528092919081815260200182805460018160011615610100020316600290048015613eb75780601f10613e8c57610100808354040283529160200191613eb7565b820191906000526020600020905b815481529060010190602001808311613e9a57829003601f168201915b5050505050905090565b600060011515600a60009054906101000a900460ff16151514613f4c576040517f08c379a000000000000000000000000000000000000000000000000000000000815260040180806020018281038252600e8152602001807f566f74696e67206973206f76657200000000000000000000000000000000000081525060200191505060405180910390fd5b600a60029054906101000a900460ff16905090565b8060098190555050565b828054600181600116156101000203166002900490600052602060002090601f016020900481019282601f10613fac57805160ff1916838001178555613fda565b82800160010185558215613fda579182015b82811115613fd9578251825591602001919060010190613fbe565b5b509050613fe79190613feb565b5090565b5b80821115614004576000816000905550600101613fec565b509056fe5468657265206973206e6f2074656e7461746976652077696e6e696e67206f7574636f6d65a2646970667358221220072e6d869a6a95933339c87a1070b071ab09a9fc47f23beb331041bc6a8f70a964736f6c63430007030033",
  "immutableReferences": {},
  "source": "// SPDX-License-Identifier: MIT\r\npragma solidity >=0.4.22 <0.9.0;\r\n\r\ncontract setBet{\r\n    // market za pitanja da/ne\r\n    address payable betCreator;\r\n    uint dateOfResolve; // pogledaj manipulaciju sa datumima\r\n    uint endTime; // vreme do kog traje trziste\r\n    string public myPrediction; //predvidjanje na koje kreator stavlja rep, posto je da/ne\r\n    string category; //kategorija kojoj pripada pitanje, sport, ...\r\n    string tags; // tagovi, ovo mozda i izbacim\r\n    address designetedReporter; // adresa koja po isteku opklade treba da prijavi rezultat\r\n    string additionalDetails;    //pokazuje na kom sajtu ce biti objavljena resenja\r\n    uint creatorFee; // koliko je fee ako trziste prodje kao invalid\r\n    uint initialLiquidity; // ako se ne postavi, filtrira se kao invalid odmah od samog augura\r\n    bool public betFinished;\r\n    enum Vote {YES, NO}\r\n    bool TWOset = false;\r\n    Vote TentativeWinningOutcome;\r\n    string predictionOutcome;\r\n    uint noShowBond; //zalog da ce designeted reporter da prijavi ispravno resenje\r\n    uint validityBond; //zalog da ce outcome biti validan\r\n    mapping(Vote => uint) public listOfBets; // pokazuje koliko je novca na svaki odgovor stavljeno\r\n    mapping(address => mapping(Vote => uint)) public listOfParticipans; // prestavlja listu ucesnika i kolicinu novca koju su ulozili\r\n    mapping(Vote => uint) public listOfREPBets; // pokazuje koliko rep novca je stavljeno \r\n    mapping(address => mapping(Vote => uint)) public listOfREPreporters; // ljudi koji donose odluku koji odgovor je tacan\r\n    struct betting{ \r\n    uint sheres;\r\n    uint numberOfEthar;\r\n    bool hasOpponent;\r\n    }\r\n    struct selling{\r\n        uint sheres;\r\n        uint sellingPrice;\r\n    }\r\n    uint betsFor;\r\n    uint betsAgainst;\r\n    mapping(address => betting) public ledgerBookBuy;\r\n    mapping(address => betting) public ledgerBookSell;\r\n    mapping(address => selling) public ledgerBookSelles;\r\n    mapping(address => selling) public ledgerBookSettlment;\r\n    //betting treba da bude dinamicki alociran niz\r\n    //pa ako korisnik kupuje nove deonice\r\n    //da se niz prosiruje\r\n    //adresa kljuc koja pokazuje na   \r\n    // na strukturu u kojoj upisujemo koliko deonica smo kupili po kojoj ceni\r\n\r\n\r\n    //trebaju mi dve knjige\r\n    //prva koja ce sluziti da kupujes odnosno prodajes ako ti se svidja sa nekim\r\n    // druga je ako zelis da prodas svoje koje posedujes vec\r\n    \r\n\r\n    //mozda kreator treba da bude u konstruktoru\r\n    function writePrediction(string memory  Prediction) public {\r\n        myPrediction = Prediction;\r\n    }\r\n    function readPrediction() public view returns (string memory) {\r\n        return myPrediction;\r\n    }\r\n    //takodje moze samo jednom da se pozove\r\n    //korisnik je i designeted reporter, jer ljudi \r\n    //skoro pa uvek biraju sebe\r\n    function setCreator() public{\r\n        betCreator=msg.sender;\r\n        designetedReporter = msg.sender;\r\n    }\r\n    function getCreator() public view returns(address){\r\n        return betCreator;\r\n    }\r\n    //najbolja opcija je da izabere sebe\r\n   // function setDesignatedReporter(address DesignetedReporter) public{\r\n    //    designetedReporter=DesignetedReporter;\r\n   // }\r\n   // function getDesignatedReporter() public view returns(address){\r\n    //    return designetedReporter;\r\n   // }\r\n    function setCategory() public returns (string memory Category) {\r\n        category = Category;\r\n    }\r\n    function setTags() public returns (string memory Tags) {\r\n        tags = Tags;\r\n    }\r\n   function setAdditionalDetails(string memory AdditionalDetails) public{\r\n        additionalDetails = AdditionalDetails;\r\n    }\r\n    function setEndTime(uint EndTime) public{\r\n        endTime = EndTime;\r\n    }\r\n    function setCreatorFee(uint CreatorFee) public{\r\n        creatorFee = CreatorFee;\r\n    }\r\n    function setInitialLiquidity(uint intLiq) public{\r\n        initialLiquidity = intLiq;\r\n    }\r\n    //koristi se external, a ne public, jer public trosi vise gasa\r\n    //kada kazem yes\r\n    function setParticipantBetBuy(uint Shares) external payable{ \r\n        //uslov da vreme nije isteklo\r\n        require(betFinished == false, \"Voting is over\");\r\n\r\n        ledgerBookBuy[msg.sender].sheres = Shares; \r\n        ledgerBookBuy[msg.sender].numberOfEthar = msg.value;\r\n        ledgerBookBuy[msg.sender].hasOpponent= false;\r\n        //upisao korisnika u knjigu, koliko deonica zeli, po kojoj ceni,\r\n        //kada na ovaj nacin upise deonica, nema protivnika\r\n        //i protivnikova adresa ne postoji\r\n      //  listOfBets[ _vote] += msg.value;   // globalna lista opklada\r\n       // listOfParticipans[msg.sender] [_vote] += msg.value; // pojedinacna lista opklada\r\n    }\r\n    // uint proba;\r\n    //     function setProba() external payable{ \r\n    //         proba = msg.value;\r\n    // }\r\n    //     function getProba() public view returns(uint value){\r\n    //     return proba;\r\n    // }\r\n    function getParticipantBetBuy() public view returns(uint value){\r\n        return ledgerBookBuy[msg.sender].numberOfEthar;\r\n    }\r\n    //kada se ne slazem sa opkladom, ne\r\n    function setParticipantBetSell(uint Shares) external payable{ \r\n        //uslov da vreme nije isteklo\r\n        require(betFinished == false, \"Voting is over\");\r\n        \r\n        ledgerBookSell[msg.sender].sheres = Shares; \r\n        ledgerBookSell[msg.sender].numberOfEthar = msg.value;\r\n        ledgerBookSell[msg.sender].hasOpponent= false;\r\n        //upisao korisnika u knjigu, koliko deonica zeli, po kojoj ceni,\r\n        //kada na ovaj nacin upise deonica, nema protivnika\r\n        //i protivnikova adresa ne postoji\r\n        //listOfBets[ _vote] += msg.value;   // globalna lista opklada\r\n        //listOfParticipans[msg.sender] [_vote] += msg.value; // pojedinacna lista opklada\r\n    }\r\n        function getParticipantBetSell() public view returns(uint value){\r\n        return ledgerBookSell[msg.sender].numberOfEthar;\r\n    }\r\n    //protivnik se slaze sa opkladom,\r\n    //ja se ne slazem sa opkladom\r\n    function setParticipantBetOpponentBuy(address _opponent, uint shere) external payable{ \r\n        //uslov da vreme nije isteklo\r\n        require(betFinished == false, \"Voting is over\");\r\n        // ledgerBookBuy[_opponent] = betting(shere, value, true); \r\n        // ledgerBookSell[msg.sender] = betting(shere, msg.value, true); \r\n        ledgerBookBuy[_opponent].hasOpponent = true;\r\n        ledgerBookSell[msg.sender] = betting(shere, msg.value, true); \r\n        betsFor += ledgerBookBuy[_opponent].numberOfEthar;\r\n        betsAgainst += msg.value;\r\n        // ledgerBookBuy[_opponent] = betting(shere, value, true, msg.sender); \r\n        // ledgerBookSell[msg.sender] = betting(shere, msg.value, true, _opponent); \r\n        // postavio da postoji opklada izmedju dva bettera\r\n        // onaj ko izgubi, prosledjuje novac onom koji pobedi\r\n    }\r\n    //ja se slazem sa opkladom\r\n    //protivnik se ne slaze\r\n    function setParticipantBetOpponentSell(address _opponent, uint shere) external payable{ \r\n        //uslov da vreme nije isteklo\r\n        require(betFinished == false, \"Voting is over\");\r\n          ledgerBookSell[_opponent].hasOpponent = true; \r\n          ledgerBookBuy[msg.sender] = betting(shere, msg.value, true); \r\n          betsFor += msg.value;\r\n          betsAgainst += ledgerBookBuy[_opponent].numberOfEthar;\r\n        // onaj ko izgubi,treba da prosledi novac onome ko pobedi \r\n        // ta funkcija tek treba da se napravi\r\n    }\r\n    // function getParticipantBetSellOpponentAddress() public view returns(address){\r\n    //     return ledgerBookSell[msg.sender].opponentAddress;\r\n    // }\r\n    // funkcija za prikaz podataka ako zelim da prodam deonice\r\n    function setToSellBuy(uint sheres, uint sellingPrice) external{\r\n        require(betFinished == false, \"Voting is over\");\r\n        require(ledgerBookBuy[msg.sender].sheres >= sheres, \"You dont own that much sheres\");\r\n        require(ledgerBookBuy[msg.sender].hasOpponent == true, \" You have opponent\");\r\n        ledgerBookSelles[msg.sender].sheres = sheres;\r\n        ledgerBookSelles[msg.sender].sellingPrice = sellingPrice;\r\n    }\r\n    function getsetToSellBuy() public view returns(uint){\r\n        return ledgerBookSelles[msg.sender].sellingPrice;\r\n    }\r\n    function setToSellSell(uint sheres, uint sellingPrice) external{\r\n        require(betFinished == false, \"Voting is over\");\r\n        require(ledgerBookSell[msg.sender].sheres >= sheres, \"You dont own that much sheres\");\r\n        require(ledgerBookSell[msg.sender].hasOpponent == true, \" You have opponent\");\r\n        ledgerBookSelles[msg.sender].sheres = sheres;\r\n        ledgerBookSelles[msg.sender].sellingPrice = sellingPrice;\r\n    }\r\n    //obrisi na kraju\r\n    mapping(address => uint) recipientEther;\r\n    function buySomeonesBuyBet(address payable _seller) external payable{ \r\n        //uslov da vreme nije isteklo\r\n        require(betFinished == false, \"Voting is over\");\r\n           ledgerBookBuy[msg.sender].sheres += ledgerBookBuy[_seller].sheres;\r\n           ledgerBookBuy[msg.sender].numberOfEthar += msg.value;\r\n           ledgerBookBuy[msg.sender].hasOpponent = ledgerBookBuy[_seller].hasOpponent; \r\n           _seller.transfer(msg.value);\r\n           recipientEther[_seller] = msg.value;\r\n           //kako ga izvrisati sa liste\r\n           ledgerBookSelles[_seller].sheres = 0;\r\n           ledgerBookSelles[_seller].sellingPrice = 0;\r\n    }\r\n    //radi\r\n    function getSellersMoney(address _seller) public view returns(uint){\r\n        return recipientEther[_seller];\r\n    }\r\n       function buySomeonesBuySell(address payable _seller) external payable{ \r\n        //uslov da vreme nije isteklo\r\n        require(betFinished == false, \"Voting is over\");\r\n           ledgerBookSell[msg.sender].sheres += ledgerBookBuy[_seller].sheres;\r\n           ledgerBookSell[msg.sender].numberOfEthar += msg.value;\r\n           ledgerBookSell[msg.sender].hasOpponent = ledgerBookBuy[_seller].hasOpponent;\r\n           _seller.transfer(msg.value);\r\n            ledgerBookSelles[_seller].sheres = 0;\r\n           ledgerBookSelles[_seller].sellingPrice = 0;\r\n        // postavio da postoji opklada izmedju dva bettera\r\n        // onaj ko izgubi,treba da prosledi novac onome ko pobedi \r\n        // ta funkcija tek treba da se napravi\r\n    }\r\n    // sa ove dve funkcije u knjigu postavljamo\r\n    // deonice koje zelimo da prodamo i da za uzvrat od trzista dobijemo novac\r\n    // moramo da pronadjemo korisnika koji zeli da proda njegov deo\r\n    function settleCompleteSetBuy(uint sheres, uint sellingPrice) external{\r\n        require(betFinished == false, \"Voting is over\");\r\n        require(ledgerBookBuy[msg.sender].sheres >= sheres, \"You dont own that much sheres\");\r\n        require(ledgerBookBuy[msg.sender].hasOpponent == true, \" You have opponent\");\r\n        ledgerBookSettlment[msg.sender].sheres = sheres;\r\n        //sellingPrice treba da bude broj izmedju 0 i 10 ne ukljucujuci te brojeve\r\n        ledgerBookSettlment[msg.sender].sellingPrice = sellingPrice;\r\n    }\r\n    function getsettleCompleteSetBuy() public view returns(uint){\r\n        return ledgerBookSettlment[msg.sender].sheres;\r\n    }\r\n    function settleCompleteSetSell(uint sheres, uint sellingPrice) external{\r\n        require(betFinished == false, \"Voting is over\");\r\n        require(ledgerBookSell[msg.sender].sheres >= sheres, \"You dont own that much sheres\");\r\n        require(ledgerBookSell[msg.sender].hasOpponent == true, \" You have opponent\");\r\n        ledgerBookSettlment[msg.sender].sheres = sheres;\r\n        ledgerBookSettlment[msg.sender].sellingPrice = sellingPrice;\r\n    }\r\n\r\n    function buySomeonesSettleCompleteSetBuy(address payable _seller, address payable _buyer) external payable{ \r\n        //uslov da vreme nije isteklo\r\n        require(betFinished == false, \"Voting is over\");\r\n            //treba da adresama posaljemo novac\r\n            //koliko ethara treaba da dobije yes glasac, no glasac i creator\r\n            //delim sa 10^18 da bih dobio vrednost u wei-ma\r\n            uint price = ledgerBookSettlment[_seller].sheres * (ledgerBookSettlment[_seller].sellingPrice * 10**17);\r\n            //samo za proveru\r\n            recipientEther[_seller] = price;\r\n            //\r\n            //posalje se cena umanjena za creator fee selleru\r\n            uint creatorPart = (price/100)*creatorFee;\r\n            uint realPrice = price - creatorPart; \r\n            _seller.transfer(realPrice);\r\n            betsFor = betsFor - price;\r\n            // vrednost koju dobija msg.sender\r\n            uint price2 = ledgerBookSettlment[_seller].sheres * ((10-ledgerBookSettlment[_seller].sellingPrice) * 10**17);\r\n            uint creatorPart2 = (price2/100)*creatorFee;\r\n            //samo za proveru\r\n            realPrice = price2;\r\n            recipientEther[_buyer] = realPrice;\r\n            //\r\n            uint diff =  betsAgainst - price2;\r\n            betsAgainst = betsAgainst - price2;\r\n            realPrice = price2 - creatorPart2;\r\n            msg.sender.transfer(price2);\r\n            //kreatoru se poslao njegov deo\r\n            uint creatorMoney = creatorPart + creatorPart2;\r\n            betCreator.transfer(creatorMoney);\r\n            //kako ga izvrisati sa liste\r\n            ledgerBookBuy[_seller].sheres -= ledgerBookSettlment[_seller].sheres;\r\n            //ovaj deo za ethar nam nije potreban\r\n            //njega cu da obrisem\r\n            ledgerBookSell[msg.sender].sheres -= ledgerBookBuy[_seller].sheres;\r\n            ledgerBookSettlment[_seller].sheres = 0;\r\n            ledgerBookSettlment[_seller].sellingPrice = 0;\r\n    }\r\n    function buySomeonesSettleCompleteSetSell(address payable _seller) external payable{ \r\n        //uslov da vreme nije isteklo\r\n        require(betFinished == false, \"Voting is over\");\r\n           ledgerBookBuy[msg.sender].sheres -= ledgerBookSettlment[_seller].sheres;\r\n           ledgerBookSell[_seller].sheres -= ledgerBookBuy[_seller].sheres;\r\n           //treba da adresama posaljemo novac\r\n            //koliko ethara treaba da dobije yes glasac, no glasac i creator\r\n            //delim sa 10^18 da bih dobio vrednost u wei-ma\r\n            uint price = ledgerBookSettlment[_seller].sheres * (ledgerBookSettlment[_seller].sellingPrice * 10^17);\r\n            //posalje se cena umanjena za creator fee selleru\r\n            uint creatorPart = (price/100)*creatorFee;\r\n            uint realPrice = price - creatorPart; \r\n            _seller.transfer(realPrice);\r\n            betsAgainst = betsAgainst - price;\r\n            // vrednost koju dobija msg.sender\r\n            price = ledgerBookSettlment[_seller].sheres * ((10 - ledgerBookSettlment[_seller].sellingPrice) * 10^17);\r\n            uint creatorPart2 = (price/100)*creatorFee;\r\n            realPrice = price - creatorPart2;\r\n            betsFor = betsFor - price;\r\n            msg.sender.transfer(realPrice);\r\n            //kreatoru se poslao njegov deo\r\n            uint creatorMoney = creatorPart + creatorPart2;\r\n            betCreator.transfer(creatorMoney);\r\n            ledgerBookSettlment[_seller].sheres = 0;\r\n            ledgerBookSettlment[_seller].sellingPrice = 0;\r\n    }\r\n    function setValidityBond() external payable{ \r\n        //treba da se pozove samo jednom, uslov je da creator mora da plati\r\n        // validity bond, kreator placa odredjenu svotu novca\r\n        // dobija je nazad ako je outcome valid\r\n         require(betCreator == msg.sender);\r\n         //potrebno je da se odredi neka fiksna vrednost\r\n         validityBond = msg.value;\r\n    }\r\n    function getValidityBond() public payable returns (uint) { \r\n        // funkcija koja vraca novac creatoru ako\r\n        // je outcome validan\r\n        require(betFinished == true, \"Voting is over\");\r\n        require(betCreator == msg.sender);\r\n        require(betCreator == msg.sender);\r\n      //  require(predictionOutcome == \"valid\");\r\n        msg.sender.transfer(validityBond);\r\n    }\r\n    function setNoShowBond() external payable{ \r\n        //treba da se pozove samo jednom, uslov je da creator mora da plati\r\n         require(betCreator == msg.sender);\r\n         //potrebno je da se odredi neka fiksna vrednost\r\n         noShowBond = msg.value;\r\n    }\r\n    function setPredictionOutcame(Vote _vote) external payable{  //pobednik je ko ima vise novca u ovoj listi\r\n        //uslov da vreme nije isteklo\r\n        require(betFinished == false, \"Voting is over\");\r\n        listOfREPBets[ _vote] += msg.value;   // globalna lista opklada\r\n        listOfREPreporters[msg.sender] [_vote] += msg.value; // pojedinacna lista opklada\r\n    }\r\n    function setTentativeWinningOutcome(Vote _vote) external {  //kreator treba da postavi ko je pobedio \r\n        //uslov je da je vreme isteklo\r\n        require(betFinished == true, \"Voting is over\");\r\n        require(msg.sender == designetedReporter, \"Right designeted reporter\");\r\n        //ako je proslo tri dana, gubi se rep koji je postavio creator trzista\r\n        TentativeWinningOutcome = _vote;\r\n        TWOset = true;\r\n    }\r\n    // ako prodje odredjen period i nije postavljen rezultat treba napraviti funkciju\r\n    // da jedna osoba moze da postavi rezultat ko god to bio\r\n    // i on dobija no show bond   \r\n    function setOpenReporting(Vote _vote) external {  \r\n        //ako kreator ne postavi ko je pobedio u odredjenom roku \r\n        //uslov je da je vreme isteklo\r\n        //betFinished + odredjeno vreme, tri dana\r\n        require(betFinished == true, \"Voting is over\");\r\n        require(TWOset == false, \"There is no tentative winning outcome\");\r\n        TentativeWinningOutcome = _vote;\r\n        msg.sender.transfer(noShowBond);\r\n        TWOset = true;\r\n    }\r\n    function getTentativeWinningOutcome() public view returns (Vote) { // funkcija koja prikazuje ko je pobednik\r\n        require(betFinished == true, \"Voting is over\");\r\n        return TentativeWinningOutcome;\r\n    }\r\n    //dodaj validity bond\r\n    //korisnik moze da kupi(postavi) opkladu tako sto plati ethar ili tako sto kupi necije opklade\r\n    function buyParticipantBet() external payable{ \r\n        //uslov da vreme nije isteklo\r\n        require(betFinished == false, \"Voting is over\");\r\n        // treba poslati osobi od koje zelim da kupim opkladu novac, \r\n        // i od nje dobijam njegovu opkladu\r\n        // njegov shere\r\n        //listOfParticipans[msg.sender] [_vote] += msg.value; // pojedinacna lista opklada\r\n        //listOfBets[ _vote] += msg.value;   // globalna lista opklada\r\n    }\r\n    //smisli bolji naziv\r\n    //treba dodati ko je izgubio\r\n    function getMoney() external{\r\n        require(betFinished == true, \"Betting is over\");\r\n       // require(predictionOutcome == \"valid\", \"Outcome of prediction market is valid\");\r\n        uint myBet = listOfParticipans[msg.sender][TentativeWinningOutcome];\r\n        //uint gain = myBet + listOfBets[loser] * myBet / listOfBets[winner];\r\n    }\r\n}",
  "sourcePath": "D:/Mihailo/SI/VI semestar/bitcoin/contracts/predictionMarket.sol",
  "compiler": {
    "name": "solc",
    "version": "0.7.3+commit.9bfce1f6.Emscripten.clang"
  },
  "schemaVersion": "3.4.1",
  "updatedAt": "2021-06-30T21:44:35.048Z",
  "devdoc": {
    "kind": "dev",
    "methods": {},
    "version": 1
  },
  "userdoc": {
    "kind": "user",
    "methods": {},
    "version": 1
  }
}